:100000000C945A000C9477000C9477000C947700B1
:100010000C9477000C9477000C9477000C94770084
:100020000C9477000C9477000C9477000C94770074
:100030000C9477000C9477000C9477000C94770064
:100040000C9477000C9477000C9477000C94770054
:100050000C9477007C019801B401D001EC010802F6
:1000600024024002370353036F038B03A703C30328
:10007000DF03FB032D04520477049C04C104E6044F
:100080000B05300555057A059F05C405E905580699
:100090000E0633063B07570773078F07AB07C707E3
:1000A000E307FF07BD0AD90AF50A110B2D0B490B0F
:1000B000650B810B11241FBECFE5D8E0DEBFCDBF9D
:1000C00011E0A0E6B0E0ECE5F1E402C005900D928D
:1000D000AE33B107D9F721E0AEE3B1E001C01D9224
:1000E000AB34B207E1F70E94521C0C94AC200C9484
:1000F0000000CF93DF93CDB7DEB789E290E023E332
:10010000FC01208380E490E0FC01108280E490E018
:1001100026E8FC0120838AE290E028E1FC012083AC
:100120000000DF91CF910895CF93DF931F92CDB759
:10013000DEB7898300008BE290E0FC018081882F8C
:1001400090E080729927892BB1F38CE290E02981AD
:10015000FC01208300000F90DF91CF910895CF9391
:10016000DF931F92CDB7DEB7198200008BE290E0DB
:10017000FC0180818823D4F78CE290E0FC0180812F
:10018000898389810F90DF91CF910895CF93DF9379
:1001900000D000D0CDB7DEB79C838B831A82198242
:1001A0000FC089819A812B813C81820F931FFC01B2
:1001B00080810E94940089819A8101969A83898323
:1001C00089819A812B813C81820F931FFC01808160
:1001D000882339F700000F900F900F900F90DF9158
:1001E000CF910895CF93DF9300D000D01F92CDB769
:1001F000DEB79C838B836D8319821A820E94AF00C5
:10020000898310C08A81882F90E02B813C81820FE6
:10021000931F2981FC0120830E94AF0089838A817A
:100220008F5F8A839A818D81981760F300000F9009
:100230000F900F900F900F90DF91CF910895CF9373
:10024000DF9300D000D01F92CDB7DEB79C838B83A5
:100250006D831A8219820DC089819A812B813C811C
:10026000820F931FFC01108289819A8101969A83E3
:1002700089838D81282F30E089819A8182179307A5
:100280005CF300000F900F900F900F900F90DF9194
:10029000CF9108950F93CF93DF9300D000D01F929A
:1002A000CDB7DEB789836A834B832C830D83898125
:1002B000882F90E08130910509F4C3C18230910507
:1002C00009F4C3C5892B11F00C94E0088A81882FAA
:1002D00090E0092E000CAA0BBB0B40E050E027E099
:1002E00030E0841B950B2817390708F4E5C0865DBC
:1002F0009F4FFC010C94601E83E590E023E530E005
:10030000F90120812E7FFC01208383E590E023E525
:1003100030E0F90120812D7FFC01208383E590E00E
:1003200023E530E0F90120812B7FFC012083C4C04C
:1003300083E590E023E530E0F90120812160FC01B4
:10034000208383E590E023E530E0F90120812E7FD2
:10035000FC01208383E590E023E530E0F901208172
:100360002E7FFC012083A8C083E590E023E530E0E8
:10037000F90120812E7FFC01208383E590E023E5B5
:1003800030E0F90120812260FC01208383E590E0C8
:1003900023E530E0F90120812B7FFC0120838CC014
:1003A00083E590E023E530E0F90120812160FC0144
:1003B000208383E590E023E530E0F901208122608D
:1003C000FC01208383E590E023E530E0F901208102
:1003D0002B7FFC01208370C083E590E023E530E0B3
:1003E000F90120812E7FFC01208383E590E023E545
:1003F00030E0F90120812D7FFC01208383E590E02E
:1004000023E530E0F90120812460FC01208354C001
:1004100083E590E023E530E0F90120812160FC01D3
:10042000208383E590E023E530E0F90120812D7FF2
:10043000FC01208383E590E023E530E0F901208191
:100440002460FC01208338C083E590E023E530E0A0
:10045000F90120812E7FFC01208383E590E023E5D4
:1004600030E0F90120812260FC01208383E590E0E7
:1004700023E530E0F90120812460FC0120831CC0C9
:1004800083E590E023E530E0F90120812160FC0163
:10049000208383E590E023E530E0F90120812260AC
:1004A000FC01208383E590E023E530E0F901208121
:1004B0002460FC01208300008B81882F90E0813034
:1004C0009105F9F0823091051CF4892B39F052C066
:1004D0008230910549F10397D1F14CC083E590E05A
:1004E00023E530E0F90120812F7BFC01208383E5A7
:1004F00090E023E530E0F9012081277FFC01208393
:1005000039C083E590E023E530E0F90120812064E3
:10051000FC01208383E590E023E530E0F9012081B0
:10052000277FFC01208326C083E590E023E530E0AF
:10053000F90120812F7BFC01208383E590E023E5F6
:1005400030E0F90120812860FC01208313C083E59D
:1005500090E023E530E0F90120812064FC01208354
:1005600083E590E023E530E0F90120812860FC017B
:10057000208300008C81882F90E08130910501F16B
:10058000823091051CF4892B41F01AC68230910506
:1005900081F1039709F440C013C683E590E023E599
:1005A00030E0F90120812F7EFC01208383E590E07B
:1005B00023E530E0F90120812F7DFC01208340C03C
:1005C0008B818330E1F18B818130C9F183E590E04B
:1005D00023E530E0F90120812061FC01208383E5DF
:1005E00090E023E530E0F90120812F7DFC0120839C
:1005F00026C083E590E023E530E0F90120812F7EDD
:10060000FC01208383E590E023E530E0F9012081BF
:100610002062FC01208314C083E590E023E530E0F4
:10062000F90120812061FC01208383E590E023E52E
:1006300030E0F90120812062FC01208301C000002C
:10064000BFC58A81882F90E0092E000CAA0BBB0B36
:1006500040E050E027E030E0841B950B2817390775
:1006600008F4E5C08E5C9F4FFC010C94601E8EE484
:1006700090E02EE430E0F90120812E7FFC01208300
:100680008EE490E02EE430E0F90120812D7FFC0122
:1006900020838EE490E02EE430E0F90120812B7F6E
:1006A000FC012083C4C08EE490E02EE430E0F90128
:1006B00020812160FC0120838EE490E02EE430E074
:1006C000F90120812D7FFC0120838EE490E02EE44F
:1006D00030E0F90120812B7FFC012083A8C08EE44B
:1006E00090E02EE430E0F90120812E7FFC01208390
:1006F0008EE490E02EE430E0F90120812260FC01DC
:1007000020838EE490E02EE430E0F90120812B7FFD
:10071000FC0120838CC08EE490E02EE430E0F901EF
:1007200020812160FC0120838EE490E02EE430E003
:10073000F90120812260FC0120838EE490E02EE408
:1007400030E0F90120812B7FFC01208370C08EE412
:1007500090E02EE430E0F90120812E7FFC0120831F
:100760008EE490E02EE430E0F90120812D7FFC0141
:1007700020838EE490E02EE430E0F90120812460B3
:10078000FC01208354C08EE490E02EE430E0F901B7
:1007900020812160FC0120838EE490E02EE430E093
:1007A000F90120812D7FFC0120838EE490E02EE46E
:1007B00030E0F90120812460FC01208338C08EE400
:1007C00090E02EE430E0F90120812E7FFC012083AF
:1007D0008EE490E02EE430E0F90120812260FC01FB
:1007E00020838EE490E02EE430E0F9012081246043
:1007F000FC0120831CC08EE490E02EE430E0F9017F
:1008000020812160FC0120838EE490E02EE430E022
:10081000F90120812260FC0120838EE490E02EE427
:1008200030E0F90120812460FC01208300008B81ED
:10083000882F90E0092E000CAA0BBB0B40E050E083
:100840002FE030E0841B950B2817390708F430C2DD
:10085000865C9F4FFC010C94601E8EE490E02EE4B9
:1008600030E0F90120812F7EFC0120838EE490E0AE
:100870002EE430E0F9012081277FFC0120838FE402
:1008800090E02FE430E0F90120812D7FFC012083EE
:100890008FE490E02FE430E0F90120812E7FFC010D
:1008A000208306C28EE490E02EE430E0F90120813E
:1008B0002F7EFC0120838EE490E02EE430E0F901ED
:1008C0002081277FFC0120838FE490E02FE430E03B
:1008D000F90120812D7FFC0120838FE490E02FE43B
:1008E00030E0F90120812160FC012083E1C18EE428
:1008F00090E02EE430E0F90120812F7EFC0120837E
:100900008EE490E02EE430E0F90120812860FC01C3
:1009100020838FE490E02FE430E0F9012081226011
:10092000FC0120838FE490E02FE430E0F901208186
:100930002E7FFC012083BCC18EE490E02EE430E0E9
:10094000F90120812F7EFC0120838EE490E02EE4CB
:1009500030E0F9012081277FFC0120838FE490E0C3
:100960002FE430E0F90120812260FC0120838FE434
:1009700090E02FE430E0F90120812160FC01208328
:1009800097C18EE490E02EE430E0F90120812F7EC3
:10099000FC0120838EE490E02EE430E0F901208118
:1009A0002860FC0120838FE490E02FE430E0F9011F
:1009B00020812D7FFC0120838FE490E02FE430E044
:1009C000F90120812E7FFC01208372C18EE490E02A
:1009D0002EE430E0F90120812F7EFC0120838EE49B
:1009E00090E02EE430E0F90120812860FC012083B2
:1009F0008FE490E02FE430E0F90120812D7FFC01AD
:100A000020838FE490E02FE430E0F9012081216021
:100A1000FC0120834DC18EE490E02EE430E0F9012A
:100A200020812F7EFC0120838EE490E02EE430E0D4
:100A3000F90120812860FC0120838FE490E02FE4FD
:100A400030E0F90120812260FC0120838FE490E0F6
:100A50002FE430E0F90120812E7FFC01208328C1A2
:100A60008EE490E02EE430E0F90120812F7EFC013D
:100A700020838EE490E02EE430E0F90120812860AC
:100A8000FC0120838FE490E02FE430E0F901208125
:100A90002260FC0120838FE490E02FE430E0F90134
:100AA00020812160FC01208303C18EE490E02EE4CC
:100AB00030E0F90120812061FC0120838EE490E088
:100AC0002EE430E0F9012081277FFC0120838FE4B0
:100AD00090E02FE430E0F90120812D7FFC0120839C
:100AE0008FE490E02FE430E0F90120812E7FFC01BB
:100AF0002083DEC08EE490E02EE430E0F901208116
:100B00002061FC0120838EE490E02EE430E0F901C6
:100B10002081277FFC0120838FE490E02FE430E0E8
:100B2000F90120812D7FFC0120838FE490E02FE4E8
:100B300030E0F90120812160FC012083B9C08EE4FE
:100B400090E02EE430E0F90120812061FC01208357
:100B50008EE490E02EE430E0F9012081277FFC0153
:100B600020838FE490E02FE430E0F90120812260BF
:100B7000FC0120838FE490E02FE430E0F901208134
:100B80002E7FFC01208394C08EE490E02EE430E0C0
:100B9000F90120812061FC0120838EE490E02EE4A5
:100BA00030E0F9012081277FFC0120838FE490E071
:100BB0002FE430E0F90120812260FC0120838FE4E2
:100BC00090E02FE430E0F90120812160FC012083D6
:100BD0006FC08EE490E02EE430E0F90120812061C6
:100BE000FC0120838EE490E02EE430E0F9012081C6
:100BF0002860FC0120838FE490E02FE430E0F901CD
:100C000020812D7FFC0120838FE490E02FE430E0F1
:100C1000F90120812E7FFC0120834AC08EE490E000
:100C20002EE430E0F90120812061FC0120838EE474
:100C300090E02EE430E0F90120812860FC0120835F
:100C40008FE490E02FE430E0F90120812260FC0184
:100C500020838FE490E02FE430E0F90120812E7FA3
:100C6000FC01208325C08EE490E02EE430E0F90101
:100C700020812061FC0120838EE490E02EE430E0AE
:100C8000F90120812860FC0120838FE490E02FE4AB
:100C900030E0F90120812260FC0120838FE490E0A4
:100CA0002FE430E0F90120812160FC012083000065
:100CB0008C81882F90E08130910501F1823091057F
:100CC0001CF4892B41F05AC08230910581F10397C1
:100CD00009F440C053C08FE490E02FE430E0F90104
:100CE00020812F7BFC0120838FE490E02FE430E013
:100CF000F90120812F77FC01208340C08B81833054
:100D0000E1F18B818130C9F18FE490E02FE430E094
:100D1000F90120812064FC0120838FE490E02FE41E
:100D200030E0F90120812F77FC01208326C08FE479
:100D300090E02FE430E0F90120812F7BFC0120833B
:100D40008FE490E02FE430E0F90120812068FC017D
:100D5000208314C08FE490E02FE430E0F90120817B
:100D60002064FC0120838FE490E02FE430E0F9015F
:100D700020812068FC01208301C000008D81882F24
:100D800090E08130910501F1823091051CF4892BAE
:100D900041F016C28230910581F1039709F440C0F9
:100DA0000FC28FE490E02FE430E0F90120812F7E24
:100DB000FC0120838FE490E02FE430E0F9012081F2
:100DC0002F7DFC01208340C08B818330E1F18B813A
:100DD0008130C9F18FE490E02FE430E0F901208107
:100DE0002061FC0120838FE490E02FE430E0F901E2
:100DF00020812F7DFC01208326C08FE490E02FE42A
:100E000030E0F90120812F7EFC0120838FE490E007
:100E10002FE430E0F90120812062FC01208314C01E
:100E20008FE490E02FE430E0F90120812061FC01A3
:100E300020838FE490E02FE430E0F90120812062EC
:100E4000FC01208301C00000BBC18A81882F90E093
:100E5000092E000CAA0BBB0B40E050E027E030E06D
:100E6000841B950B2817390708F4E5C0865B9F4F54
:100E7000FC010C94601E85E490E025E430E0F9016B
:100E800020812E7FFC01208385E490E025E430E082
:100E9000F90120812D7FFC01208385E490E025E489
:100EA00030E0F90120812B7FFC012083C4C085E460
:100EB00090E025E430E0F90120812160FC012083ED
:100EC00085E490E025E430E0F90120812E7FFC01EB
:100ED000208385E490E025E430E0F90120812E7F35
:100EE000FC012083A8C085E490E025E430E0F9010E
:100EF00020812E7FFC01208385E490E025E430E012
:100F0000F90120812260FC01208385E490E025E442
:100F100030E0F90120812B7FFC0120838CC085E427
:100F200090E025E430E0F90120812160FC0120837C
:100F300085E490E025E430E0F90120812260FC01A5
:100F4000208385E490E025E430E0F90120812B7FC7
:100F5000FC01208370C085E490E025E430E0F901D5
:100F600020812E7FFC01208385E490E025E430E0A1
:100F7000F90120812D7FFC01208385E490E025E4A8
:100F800030E0F90120812460FC01208354C085E415
:100F900090E025E430E0F90120812160FC0120830C
:100FA00085E490E025E430E0F90120812D7FFC010B
:100FB000208385E490E025E430E0F901208124607D
:100FC000FC01208338C085E490E025E430E0F9019D
:100FD00020812E7FFC01208385E490E025E430E031
:100FE000F90120812260FC01208385E490E025E462
:100FF00030E0F90120812460FC0120831CC085E4DD
:1010000090E025E430E0F90120812160FC0120839B
:1010100085E490E025E430E0F90120812260FC01C4
:10102000208385E490E025E430E0F901208124600C
:10103000FC01208300008B81882F90E08130910596
:10104000F9F0823091051CF4892B39F052C08230BE
:10105000910549F10397D1F14CC085E490E025E476
:1010600030E0F90120812F7BFC01208385E490E0B2
:1010700025E430E0F9012081277FFC01208339C07D
:1010800085E490E025E430E0F90120812064FC0152
:10109000208385E490E025E430E0F9012081277F7A
:1010A000FC01208326C085E490E025E430E0F901CE
:1010B00020812F7BFC01208385E490E025E430E053
:1010C000F90120812860FC01208313C085E490E0B1
:1010D00025E430E0F90120812064FC01208385E4CF
:1010E00090E025E430E0F90120812860FC012083B4
:1010F00000008C81882F90E08130910501F18230D1
:1011000091051CF4892B41F05AC08230910581F180
:10111000039709F440C053C085E490E025E430E033
:10112000F90120812F7EFC01208385E490E025E4F5
:1011300030E0F90120812F7DFC01208340C08B81AC
:101140008330E1F18B818130C9F185E490E025E4C1
:1011500030E0F90120812061FC01208385E490E0EA
:1011600025E430E0F90120812F7DFC01208326C099
:1011700085E490E025E430E0F90120812F7EFC0138
:10118000208385E490E025E430E0F90120812062AD
:10119000FC01208314C085E490E025E430E0F901EF
:1011A00020812061FC01208385E490E025E430E08B
:1011B000F90120812062FC01208301C000000000B1
:1011C00000000F900F900F900F900F90DF91CF9134
:1011D0000F910895CF93DF9300D01F92CDB7DEB764
:1011E00089836A834B838981882F90E081309105C0
:1011F00021F18230910509F45EC0892B09F078C095
:101200008A81882F90E0009769F0019709F070C0FB
:1012100089E590E029E530E0F90120812260FC01B8
:1012200020830AC089E590E029E530E0F9012081BA
:101230002D7FFC01208300005BC08B81882F90E014
:101240008330910519F00497D9F052C08A81882F14
:1012500090E0019751F489E590E029E530E0F9014B
:1012600020812860FC0120830AC089E590E029E5FF
:1012700030E0F9012081277FFC01208300001AC0A3
:101280008A81882F90E0019751F489E590E029E563
:1012900030E0F90120812061FC0120830AC089E54A
:1012A00090E029E530E0F90120812F7EFC012083C8
:1012B000000000001DC08A81882F90E0009769F02F
:1012C000019709F014C089E590E029E530E0F901C3
:1012D00020812068FC0120830AC089E590E029E58F
:1012E00030E0F90120812F77FC012083000000000D
:1012F00000000F900F900F90DF91CF910895CF9342
:10130000DF9300D0CDB7DEB789836A838981882FC8
:1013100090E08130910519F182309105D1F1892B4E
:1013200009F054C08A81882F90E0009769F00197F6
:1013300009F04CC089E590E029E530E0F901208111
:101340002160FC0120830AC089E590E029E530E0B6
:10135000F90120812E7FFC012083000037C08A81A3
:10136000882F90E0019751F489E590E029E530E07D
:10137000F90120812460FC0120830AC089E590E006
:1013800029E530E0F90120812B7FFC01208300005A
:101390001DC08A81882F90E0009769F0019709F0BD
:1013A00014C089E590E029E530E0F901208120644E
:1013B000FC0120830AC089E590E029E530E0F901CD
:1013C00020812F7BFC0120830000000000000F9093
:1013D0000F90DF91CF910895CF93DF9300D000D08D
:1013E000CDB7DEB789837B836A834C838981882F5D
:1013F00090E08130910561F08230910571F1892B87
:1014000009F031C08CE590E02A81FC0120832BC0DB
:101410008C81882F90E08130910571F082309105A8
:1014200099F0892B09F01FC08AE490E02A813B8162
:10143000FC013183208310C088E490E02A813B8145
:10144000FC013183208308C086E490E02A813B813F
:10145000FC0131832083000006C083E490E02A81F0
:10146000FC012083000000000F900F900F900F9060
:10147000DF91CF910895CF93DF9300D000D0CDB707
:10148000DEB78A836B834C8319828A81882F90E030
:1014900081309105F9F0823091051CF4892B39F0E7
:1014A00052C08230910549F10397D1F14CC08DE2D1
:1014B00090E02DE230E0F9012081277FFC012083BC
:1014C0008DE290E02DE230E0F90120812B7FFC01DC
:1014D00020833DC08DE290E02DE230E0F9012081D3
:1014E000277FFC0120838DE290E02DE230E0F901BE
:1014F00020812460FC0120832AC08DE290E02DE24F
:1015000030E0F90120812860FC0120838DE290E029
:101510002DE230E0F90120812B7FFC01208317C0F0
:101520008DE290E02DE230E0F90120812860FC019D
:1015300020838DE290E02DE230E0F90120812460EB
:10154000FC01208304C081E08983898144C18B81AF
:10155000882F90E0092E000CAA0BBB0B40E050E056
:1015600027E030E0841B950B2817390708F4E5C005
:101570008E5A9F4FFC010C94601E8EE290E02EE28A
:1015800030E0F90120812E7FFC0120838DE290E084
:101590002DE230E0F90120812D7FFC0120838DE2D6
:1015A00090E02DE230E0F90120812D7FFC012083C5
:1015B000C8C08EE290E02EE230E0F90120812E7F5B
:1015C000FC0120838DE290E02DE230E0F9012081E2
:1015D0002D7FFC0120838DE290E02DE230E0F901C7
:1015E00020812260FC012083ACC08EE290E02EE2DC
:1015F00030E0F90120812E7FFC0120838DE290E014
:101600002DE230E0F90120812260FC0120838DE28F
:1016100090E02DE230E0F90120812D7FFC01208354
:1016200090C08EE290E02EE230E0F90120812E7F22
:10163000FC0120838DE290E02DE230E0F901208171
:101640002260FC0120838DE290E02DE230E0F90180
:1016500020812260FC01208374C08EE290E02EE2A3
:1016600030E0F90120812160FC0120838DE290E0CF
:101670002DE230E0F90120812D7FFC0120838DE2F5
:1016800090E02DE230E0F90120812D7FFC012083E4
:1016900058C08EE290E02EE230E0F9012081216016
:1016A000FC0120838DE290E02DE230E0F901208101
:1016B0002D7FFC0120838DE290E02DE230E0F901E6
:1016C00020812260FC0120833CC08EE290E02EE26B
:1016D00030E0F90120812160FC0120838DE290E05F
:1016E0002DE230E0F90120812260FC0120838DE2AF
:1016F00090E02DE230E0F90120812D7FFC01208374
:1017000020C08EE290E02EE230E0F90120812160DD
:10171000FC0120838DE290E02DE230E0F901208190
:101720002260FC0120838DE290E02DE230E0F9019F
:1017300020812260FC01208304C081E089838981AB
:101740004AC08C81882F90E0009719F0019759F0DA
:1017500014C08DE290E02DE230E0F90120812F7D70
:10176000FC0120830EC08DE290E02DE230E0F90113
:1017700020812062FC01208304C081E0898389816B
:101780002AC08DE290E02DE230E0F9012081206155
:10179000FC01208341E065E081E00E942C0F41E0E4
:1017A00067E081E00E942C0F41E064E081E00E944C
:1017B0002C0F41E050E064E070E081E090E00E9496
:1017C000C60D8DE290E02DE230E0F9012081206429
:1017D000FC01208389810F900F900F900F90DF9173
:1017E000CF910895CF93DF9300D01F92CDB7DEB78E
:1017F0008A836B8319828A81882F90E081309105DA
:10180000F9F0823091051CF4892B39F052C08230F6
:10181000910549F10397D1F14CC08DE290E02DE2A2
:1018200030E0F9012081277FFC0120838DE290E0E8
:101830002DE230E0F90120812B7FFC0120833DC0A7
:101840008DE290E02DE230E0F9012081277FFC015C
:1018500020838DE290E02DE230E0F90120812460C8
:10186000FC0120832AC08DE290E02DE230E0F901F6
:1018700020812860FC0120838DE290E02DE230E0A1
:10188000F90120812B7FFC01208317C08DE290E0BD
:101890002DE230E0F90120812860FC0120838DE2F7
:1018A00090E02DE230E0F90120812460FC012083EA
:1018B00004C081E08983898138C08B81882F90E0C2
:1018C000009719F0019759F014C08DE290E02DE2D5
:1018D00030E0F90120812F7DFC0120830EC08DE2D4
:1018E00090E02DE230E0F90120812062FC012083AC
:1018F00004C081E08983898118C08DE290E02DE2E7
:1019000030E0F90120812F7EFC0120838DE290E000
:101910002DE230E0F90120812064FC01208341E0C8
:1019200066E081E00E942C0F89810F900F900F904C
:10193000DF91CF910895CF93DF93CDB7DEB7A19715
:101940000FB6F894DEBF0FBECDBF89A38FE290E043
:1019500029A1FC01208300008EE290E0FC0180813F
:10196000881F8827881F882F90E081709927892BEE
:1019700099F380E090E0AAEFB4E489839A83AB8383
:10198000BC832BEA3AEA4AE250E469817A818B818E
:101990009C810E943F20DC01CB018D839E83AF831D
:1019A000B88789819A81AB81BC819C01AD01BC0162
:1019B000CD010E94761EDC01CB0189879A87AB8717
:1019C000BC8720E030E040E85FE36D817E818F815D
:1019D00098850E94E21E88231CF481E08D87B2C0A6
:1019E00020E03FEF4FE757E469857A858B859C853A
:1019F0000E943A2018160CF07BC020E030E04AE745
:101A000054E469817A818B819C810E94E71EDC010C
:101A1000CB018E879F87A88BB98B20E030E04AEFFF
:101A200054E46E857F85888999890E943F20DC0176
:101A3000CB018A8B9B8BAC8BBD8B20E030E040E8E8
:101A40005FE36A897B898C899D890E94E21E8823D5
:101A50002CF481E090E09F8B8E8B3FC020E03FEF25
:101A60004FE757E46A897B898C899D890E943A20D7
:101A700018164CF520E030E040E251E46E857F8599
:101A8000888999890E943F20DC01CB01BC01CD01EE
:101A90000E94591FDC01CB019F8B8E8B0FC088ECFD
:101AA00090E0998F888F888D998D0197F1F7998FA4
:101AB000888F8E899F8901979F8B8E8B8E899F89B6
:101AC000892B69F73FC06A897B898C899D890E942F
:101AD000591FDC01CB019F8B8E8B8E899F899B8F39
:101AE0008A8F8A8D9B8D0197F1F79B8F8A8F2AC0F1
:101AF00020E030E04FE753E46D817E818F8198854F
:101B00000E943A201816ACF469857A858B859C85ED
:101B10000E94591FDC01CB019D8F8C8F8C8D9D8D78
:101B20009F8F8E8F8E8D9F8D0197F1F79F8F8E8F58
:101B30000FC06D817E818F8198850E94591FDC01C5
:101B4000CB018D878D8588A388A18A95F1F788A31D
:101B50008FE290E0FC018081A1960FB6F894DEBF81
:101B60000FBECDBFDF91CF910895CF93DF93CDB757
:101B7000DEB78DE290E02DE230E0F90120812068AF
:101B8000FC0120830000DF91CF910895CF93DF9374
:101B900000D000D0CDB7DEB78A836B834C83198227
:101BA0008A81843008F0DFC08B81883008F0DBC088
:101BB0008C81813009F067C08A81882F90E0813064
:101BC000910511F1823091051CF4892B41F0CAC0B6
:101BD0008230910571F1039709F440C0C3C08BE3D3
:101BE00090E02BE330E0F9012081622F2B81422F1E
:101BF00050E021E030E002C0220F331F4A95E2F7A7
:101C0000262BFC012083AEC088E390E028E330E07F
:101C1000F9012081622F2B81422F50E021E030E03A
:101C200002C0220F331F4A95E2F7262BFC012083C6
:101C300099C085E390E025E330E0F9012081622F2F
:101C40002B81422F50E021E030E002C0220F331FF1
:101C50004A95E2F7262BFC01208384C082E390E0C2
:101C600022E330E0F9012081622F2B81422F50E0E6
:101C700021E030E002C0220F331F4A95E2F7262B05
:101C8000FC0120836FC08C81882309F06FC08A819A
:101C9000882F90E08130910519F1823091051CF474
:101CA000892B41F05FC08230910581F1039709F4DF
:101CB00043C058C08BE390E02BE330E0F901208172
:101CC000622F2B81422F50E021E030E002C0220F32
:101CD000331F4A95E2F720952623FC01208342C05A
:101CE00088E390E028E330E0F9012081622F2B8126
:101CF000422F50E021E030E002C0220F331F4A950E
:101D0000E2F720952623FC0120832CC085E390E098
:101D100025E330E0F9012081622F2B81422F50E032
:101D200021E030E002C0220F331F4A95E2F72095F0
:101D30002623FC01208316C082E390E022E330E0FA
:101D4000F9012081622F2B81422F50E021E030E009
:101D500002C0220F331F4A95E2F720952623FC018B
:101D60002083000003C081E0898301C000008981D5
:101D70000F900F900F900F90DF91CF910895CF9318
:101D8000DF9300D01F92CDB7DEB78A836B838A8141
:101D9000843008F05AC08B81883008F056C08A81A0
:101DA000882F90E081309105E9F0823091051CF494
:101DB000892B39F04AC08230910529F10397A1F1AE
:101DC00044C089E390E0FC018081882F90E02B8162
:101DD000222F30E002C0959587952A95E2F7817011
:101DE000898333C086E390E0FC018081882F90E0F6
:101DF0002B81222F30E002C0959587952A95E2F736
:101E00008170898322C083E390E0FC018081882F68
:101E100090E02B81222F30E002C0959587952A957E
:101E2000E2F78170898311C080E390E0FC0180813A
:101E3000882F90E02B81222F30E002C09595879566
:101E40002A95E2F781708983000089810F900F90B5
:101E50000F90DF91CF910895CF93DF9300D000D002
:101E6000CDB7DEB78A836B834C8319828A81843035
:101E700008F0E1C08B81883008F0DAC08C818130B5
:101E800009F067C08A81882F90E08130910511F1B7
:101E9000823091051CF4892B41F0CFC0823091052E
:101EA00071F1039709F440C0C8C08AE390E02AE3C7
:101EB00030E0F9012081622F2B81422F50E021E098
:101EC00030E002C0220F331F4A95E2F7262BFC01B7
:101ED0002083B3C087E390E027E330E0F90120815D
:101EE000622F2B81422F50E021E030E002C0220F10
:101EF000331F4A95E2F7262BFC0120839EC084E322
:101F000090E024E330E0F9012081622F2B81422F01
:101F100050E021E030E002C0220F331F4A95E2F783
:101F2000262BFC01208389C081E390E021E330E08F
:101F3000F9012081622F2B81422F50E021E030E017
:101F400002C0220F331F4A95E2F7262BFC012083A3
:101F500074C08C81882309F070C08A81882F90E03A
:101F60008130910519F1823091051CF4892B41F0E3
:101F700064C08230910581F1039709F443C05DC0CC
:101F80008AE390E02AE330E0F9012081622F2B817F
:101F9000422F50E021E030E002C0220F331F4A956B
:101FA000E2F720952623FC01208347C087E390E0D9
:101FB00027E330E0F9012081622F2B81422F50E08E
:101FC00021E030E002C0220F331F4A95E2F720954E
:101FD0002623FC01208331C084E390E024E330E039
:101FE000F9012081622F2B81422F50E021E030E067
:101FF00002C0220F331F4A95E2F720952623FC01E9
:1020000020831BC081E390E021E330E0F9012081CF
:10201000622F2B81422F50E021E030E002C0220FDE
:10202000331F4A95E2F720952623FC01208305C043
:1020300081E0898302C081E0898389810F900F90BC
:102040000F900F90DF91CF910895CF93DF9300D041
:102050001F92CDB7DEB78A836B8319828A81843061
:1020600050F58A81882F90E08130910591F082307F
:1020700091051CF4892B39F022C08230910579F04A
:10208000039799F01CC08AE390E02B81FC01208328
:1020900016C087E390E02B81FC01208310C084E30D
:1020A00090E02B81FC0120830AC081E390E02B812A
:1020B000FC01208304C081E08983898101C089817A
:1020C0000F900F900F90DF91CF910895CF93DF93F2
:1020D00000D01F92CDB7DEB78A836B8319828A81C5
:1020E000843050F58A81882F90E08130910591F0FD
:1020F000823091051CF4892B39F020C08230910583
:1021000079F0039799F01AC08BE390E02B81FC01E2
:10211000208314C088E390E02B81FC0120830EC053
:1021200085E390E02B81FC01208308C082E390E0EE
:102130002B81FC01208302C081E0898389810F907B
:102140000F900F90DF91CF910895CF93DF9300D040
:102150001F92CDB7DEB78A836B8319828A81843060
:1021600008F06CC08B81883008F068C08A81882FA5
:1021700090E08130910511F1823091051CF4892B9A
:1021800041F05BC08230910571F1039709F440C0C2
:1021900054C08BE390E02BE330E0F9012081622F03
:1021A0002B81422F50E021E030E002C0220F331F8C
:1021B0004A95E2F72627FC0120833FC088E390E0A0
:1021C00028E330E0F9012081622F2B81422F50E07B
:1021D00021E030E002C0220F331F4A95E2F72627A4
:1021E000FC0120832AC085E390E025E330E0F9017B
:1021F0002081622F2B81422F50E021E030E002C08D
:10220000220F331F4A95E2F72627FC01208315C0D1
:1022100082E390E022E330E0F9012081622F2B81FC
:10222000422F50E021E030E002C0220F331F4A95D8
:10223000E2F72627FC012083000002C081E08983A9
:1022400089810F900F900F90DF91CF910895CF93D8
:10225000DF9300D0CDB7DEB71A82198286E290E014
:1022600026E230E0F90120812064FC012083000097
:1022700086E290E0FC01808182958F70882F90E04B
:1022800081709927892BA1F384E290E0FC01808181
:10229000282F30E085E290E0FC018081882F90E0DB
:1022A000982F8827822B932B9A83898389819A81FF
:1022B0000F900F90DF91CF910895CF93DF93CDB71B
:1022C000DEB786E290E026E230E0F9012081206866
:1022D000FC01208386E290E026E230E0F9012081D3
:1022E0002860FC01208387E290E0FC01108287E2F5
:1022F00090E027E230E0F90120812F77FC01208374
:1023000087E290E027E230E0F90120812064FC01BF
:10231000208386E290E026E230E0F90120812F7DE3
:10232000FC01208386E290E026E230E0F901208182
:102330002760FC0120830000DF91CF910895CF93A7
:10234000DF93CDB7DEB786E290E026E230E0F90118
:1023500020812F77FC0120830000DF91CF91089529
:10236000CF93DF9300D01F92CDB7DEB79B838A83D4
:1023700019828A81843028F48A816FEF0E942510A7
:1023800002C081E0898389810F900F900F90DF91C7
:10239000CF910895CF93DF9300D000D0CDB7DEB7B3
:1023A0008A837C836B8319828A818A3060F58B8172
:1023B000843048F58C81882F90E0009719F00197C0
:1023C00069F01DC08A81882F90E0805A9F4FFC01E0
:1023D00090818B81692F0E94661014C08A81882F9A
:1023E00090E0805A9F4FFC01908181E0992309F091
:1023F00080E0982F8B81692F0E94661003C081E0D6
:10240000898309C008C090916A008B81692F0E945E
:10241000661081E0898389810F900F900F900F9053
:10242000DF91CF910895CF93DF93CDB7DEB7A39718
:102430000FB6F894DEBF0FBECDBF8F8F79A368A310
:102440005BA34AA319828F8D8A3008F034C18AA118
:10245000843008F030C18BA1882F90E0009721F0E4
:10246000019709F490C023C11A8287C08A81882FFE
:1024700090E0805A9F4FFC0190818AA1692F0E94B1
:10248000661088A199A1CC01A0E0B0E0BC01CD010B
:102490000E94881FDC01CB018F839887A987BA87A8
:1024A00020E030E04AEF54E46F81788589859A8591
:1024B0000E943F20DC01CB018B879C87AD87BE87C4
:1024C00020E030E040E85FE36B857C858D859E856C
:1024D0000E94E21E88232CF481E090E0988B8F8785
:1024E0003FC020E03FEF4FE757E46B857C858D854B
:1024F0009E850E943A2018164CF520E030E040E21C
:1025000051E46F81788589859A850E943F20DC019E
:10251000CB01BC01CD010E94591FDC01CB01988B7E
:102520008F870FC088EC90E09A8B898B89899A8974
:102530000197F1F79A8B898B8F8598890197988BF2
:102540008F878F859889892B69F714C06B857C8567
:102550008D859E850E94591FDC01CB01988B8F874A
:102560008F8598899C8B8B8B8B899C890197F1F740
:102570009C8B8B8B8A818F5F8A839A818F8D891741
:1025800008F074CF97C01A828CC08A81882F90E09F
:10259000805A9F4FFC01908181E0992309F080E0EF
:1025A000982F8AA1692F0E94661088A199A1CC0159
:1025B000A0E0B0E0BC01CD010E94881FDC01CB018E
:1025C0008B839C83AD83BE8320E030E04AEF54E4EC
:1025D0006B817C818D819E810E943F20DC01CB013B
:1025E0008D8B9E8BAF8BB88F20E030E040E85FE3AF
:1025F0006D897E898F89988D0E94E21E88232CF434
:1026000081E090E09A8F898F3FC020E03FEF4FE755
:1026100057E46D897E898F89988D0E943A2018161B
:102620004CF520E030E040E251E46B817C818D810B
:102630009E810E943F20DC01CB01BC01CD010E94A4
:10264000591FDC01CB019A8F898F0FC088EC90E075
:102650009C8F8B8F8B8D9C8D0197F1F79C8F8B8F2F
:10266000898D9A8D01979A8F898F898D9A8D892B63
:1026700069F714C06D897E898F89988D0E94591FD2
:10268000DC01CB019A8F898F898D9A8D9E8F8D8FDA
:102690008D8D9E8D0197F1F79E8F8D8F8A818F5F33
:1026A0008A839A818F8D891708F06FCF03C081E0EC
:1026B000898309C008C090916A008AA1692F0E948D
:1026C000661081E089838981A3960FB6F894DEBFF6
:1026D0000FBECDBFDF91CF910895CF93DF93CDB7DC
:1026E000DEB7A3970FB6F894DEBF0FBECDBF8F8FB6
:1026F00079A368A35BA34AA319828F8D8A3008F05F
:1027000036C18AA1843008F032C18BA1882F90E0B5
:10271000009721F0019709F491C025C18F8D8A831C
:1027200088C08A81082E000C990B805A9F4FFC01AB
:1027300090818AA1692F0E94661088A199A1CC017D
:10274000A0E0B0E0BC01CD010E94881FDC01CB01FC
:102750008F839887A987BA8720E030E04AEF54E456
:102760006F81788589859A850E943F20DC01CB01A5
:102770008B879C87AD87BE8720E030E040E85FE331
:102780006B857C858D859E850E94E21E88232CF4B6
:1027900081E090E0988B8F873FC020E03FEF4FE7CC
:1027A00057E46B857C858D859E850E943A2018169E
:1027B0004CF520E030E040E251E46F817885898576
:1027C0009A850E943F20DC01CB01BC01CD010E9413
:1027D000591FDC01CB01988B8F870FC088EC90E0EC
:1027E0009A8B898B89899A890197F1F79A8B898BC2
:1027F0008F8598890197988B8F878F859889892BEA
:1028000069F714C06B857C858D859E850E94591F54
:10281000DC01CB01988B8F878F8598899C8B8B8B64
:102820008B899C890197F1F79C8B8B8B8A818150D6
:102830008A838A8188230CF074CF98C08F8D8A8315
:102840008DC08A81082E000C990B805A9F4FFC0185
:10285000908181E0992309F080E0982F8AA1692F67
:102860000E94661088A199A1CC01A0E0B0E0BC0153
:10287000CD010E94881FDC01CB018B839C83AD833B
:10288000BE8320E030E04AEF54E46B817C818D818F
:102890009E810E943F20DC01CB018D8B9E8BAF8BF4
:1028A000B88F20E030E040E85FE36D897E898F8952
:1028B000988D0E94E21E88232CF481E090E09A8F8C
:1028C000898F3FC020E03FEF4FE757E46D897E8955
:1028D0008F89988D0E943A2018164CF520E030E040
:1028E00040E251E46B817C818D819E810E943F207A
:1028F000DC01CB01BC01CD010E94591FDC01CB01E1
:102900009A8F898F0FC088EC90E09C8F8B8F8B8D76
:102910009C8D0197F1F79C8F8B8F898D9A8D0197F4
:102920009A8F898F898D9A8D892B69F714C06D894B
:102930007E898F89988D0E94591FDC01CB019A8F67
:10294000898F898D9A8D9E8F8D8F8D8D9E8D01970C
:10295000F1F79E8F8D8F8A8181508A838A818823A7
:102960000CF06FCF03C081E0898309C008C090914B
:102970006A008AA1692F0E94661081E0898389819B
:10298000A3960FB6F894DEBF0FBECDBFDF91CF91F7
:102990000895CF93DF9300D000D0CDB7DEB76A8320
:1029A0007B838C8319828C81843080F48B81883086
:1029B00068F48A81813019F08A81882339F49B81F7
:1029C0008C8141E0692F0E942C0F02C081E0898335
:1029D00089810F900F900F900F90DF91CF91089504
:1029E000CF93DF9300D000D0CDB7DEB76A837B836F
:1029F0008C8319828C81843030F58B81883018F576
:102A00008A81813069F48B81282F30E08C81882F76
:102A100090E041E050E0B9010E94C60D898315C0E5
:102A20008A81882369F48B81282F30E08C81882F5C
:102A300090E040E050E0B9010E94C60D898305C0D6
:102A400081E0898302C081E0898389810F900F90A2
:102A50000F900F90DF91CF910895CF93DF9300D027
:102A600000D0CDB7DEB76A837B838C8319828C81DB
:102A7000843030F58B81883018F58A81813069F493
:102A80008B81282F30E08C81882F90E040E050E04F
:102A9000B9010E94C60D898315C08A81882369F413
:102AA0008B81282F30E08C81882F90E041E050E02E
:102AB000B9010E94C60D898305C081E0898302C0E7
:102AC00081E0898389810F900F900F900F90DF91A3
:102AD000CF9108950F931F93CF93DF93CDB7DEB7B8
:102AE000CC54D1090FB6F894DEBF0FBECDBF9E0106
:102AF000285B3F4FF9014083F9015183F90162835B
:102B0000F9017383F90184831982CE01885B9F4F99
:102B1000FC018081843048F4CE01885B9F4FFC012A
:102B200080816FEF0E94251002C081E08983CE0171
:102B3000885B9F4FFC018181843008F0BBC0CE01CF
:102B4000885B9F4FFC018281883078F4CE01885BDE
:102B50009F4FFC012281CE01885B9F4FFC01818148
:102B600041E0622F0E942C0F02C081E08983CE01D8
:102B7000885B9F4FFC018381883078F4CE01885BAD
:102B80009F4FFC012381CE01885B9F4FFC01818117
:102B900041E0622F0E942C0F02C081E08983CE01A8
:102BA000885B9F4FFC018481883078F4CE01885B7C
:102BB0009F4FFC012481CE01885B9F4FFC018181E6
:102BC00041E0622F0E942C0F02C081E0898380E0E7
:102BD00090E0A0E2B2E48A8B9B8BAC8BBD8B20E0B3
:102BE00030E04AEF54E46A897B898C899D890E9490
:102BF0003F20DC01CB018E8B9F8BA88FB98F20E00B
:102C000030E040E85FE36E897F89888D998D0E946E
:102C1000E21E88232CF481E090E09B8F8A8F3FC0D6
:102C200020E03FEF4FE757E46E897F89888D998DCB
:102C30000E943A2018164CF520E030E040E251E4C2
:102C40006A897B898C899D890E943F20DC01CB01A8
:102C5000BC01CD010E94591FDC01CB019B8F8A8FE3
:102C60000FC088EC90E09D8F8C8F8C8D9D8D01978F
:102C7000F1F79D8F8C8F8A8D9B8D01979B8F8A8F0B
:102C80008A8D9B8D892B69F717C06E897F89888D06
:102C9000998D0E94591FDC01CB019B8F8A8F8A8DF1
:102CA0009B8D9F8F8E8F8E8D9F8D0197F1F79F8FBC
:102CB0008E8F02C081E08983CE01885B9F4FFC012B
:102CC0002081FC013181FC014281FC015381FC0126
:102CD000648188E30E94401980E090E0A0E0B0E4C5
:102CE0008E839F83A887B9878E01025C1F4F20E0E7
:102CF00030E04AEF54E46E817F81888599850E9497
:102D00003F20DC01CB01F80180839183A283B38350
:102D1000CE01CE9620E030E040E85FE3FC01608128
:102D20007181828193810E94E21E88234CF4CE013E
:102D30008E5B9F4F21E030E0FC013183208367C030
:102D4000CE01CE9620E03FEF4FE757E4FC016081D3
:102D50007181828193810E943A2018160CF046C03E
:102D600020E030E040E251E46E817F8188859985E2
:102D70000E943F20DC01CB018E010E5B1F4FBC0186
:102D8000CD010E94591FDC01CB01F80191838083A2
:102D900024C0CE018C5B9F4F28EC30E0FC013183D6
:102DA0002083CE018C5B9F4FFC0180819181019734
:102DB000F1F79E012C5B3F4FF90191838083CE0197
:102DC0008E5B9F4F9E012E5B3F4FF9012081318129
:102DD00021503109FC0131832083CE018E5B9F4F4E
:102DE000FC0180819181892BA1F62BC08E010E5BA5
:102DF0001F4FCE01CE96FC0160817181828193814B
:102E00000E94591FDC01CB01F80191838083CE0120
:102E10008A5B9F4F9E012E5B3F4FF90120813181DC
:102E2000FC0131832083CE018A5B9F4FFC018081AE
:102E300091810197F1F79E012A5B3F4FF901918340
:102E40008083CE01885B9F4FFC012081FC01318192
:102E5000FC014281FC015381FC0164818FE00E94EE
:102E6000401980E090E0A0E0B0E48A879B87AC87BF
:102E7000BD8720E030E04AEF54E46A857B858C858D
:102E80009D850E943F20DC01CB018CAB9DABAEAB9E
:102E9000BFAB20E030E040E85FE36CA97DA98EA9DC
:102EA0009FA90E94E21E88232CF481E090E099AF54
:102EB00088AF3FC020E03FEF4FE757E46CA97DA902
:102EC0008EA99FA90E943A2018164CF520E030E008
:102ED00040E251E46A857B858C859D850E943F2078
:102EE000DC01CB01BC01CD010E94591FDC01CB01EB
:102EF00099AF88AF0FC088EC90E09BAF8AAF8AADE6
:102F00009BAD0197F1F79BAF8AAF88AD99AD019763
:102F100099AF88AF88AD99AD892B69F714C06CA9BA
:102F20007DA98EA99FA90E94591FDC01CB0199AFF1
:102F300088AF88AD99AD9DAF8CAF8CAD9DAD01973D
:102F4000F1F79DAF8CAFCE01885B9F4FFC012081D4
:102F5000FC013181FC014281FC015381FC0164814F
:102F600081E00E94401980E090E0A0E0B0E48E870C
:102F70009F87A88BB98B20E030E04AEF54E46E8540
:102F80007F85888999890E943F20DC01CB018AA72F
:102F90009BA7ACA7BDA720E030E040E85FE36AA5AF
:102FA0007BA58CA59DA50E94E21E88232CF481E0C0
:102FB00090E09FA78EA73FC020E03FEF4FE757E488
:102FC0006AA57BA58CA59DA50E943A2018164CF5F4
:102FD00020E030E040E251E46E857F858889998960
:102FE0000E943F20DC01CB01BC01CD010E94591F92
:102FF000DC01CB019FA78EA70FC088EC90E099ABB6
:1030000088AB88A999A90197F1F799AB88AB8EA5F0
:103010009FA501979FA78EA78EA59FA5892B69F7CE
:1030200014C06AA57BA58CA59DA50E94591FDC0133
:10303000CB019FA78EA78EA59FA59BAB8AAB8AA924
:103040009BA90197F1F79BAB8AABCE01885B9F4FA1
:10305000FC012081FC013181FC014281FC01538192
:10306000FC01648186E00E94401980E090E0A0E0CD
:10307000B0E48A839B83AC83BD8320E030E04AEFD9
:1030800054E46A817B818C819D810E943F20DC0118
:10309000CB0188A399A3AAA3BBA320E030E040E81A
:1030A0005FE368A179A18AA19BA10E94E21E882307
:1030B0002CF481E090E09DA38CA33FC020E03FEF83
:1030C0004FE757E468A179A18AA19BA10E943A2009
:1030D00018164CF520E030E040E251E46A817B8133
:1030E0008C819D810E943F20DC01CB01BC01CD0180
:1030F0000E94591FDC01CB019DA38CA30FC088EC5B
:1031000090E09FA38EA38EA19FA10197F1F79FA3AB
:103110008EA38CA19DA101979DA38CA38CA19DA1A1
:10312000892B69F714C068A179A18AA19BA10E948B
:10313000591FDC01CB019DA38CA38CA19DA199A754
:1031400088A788A599A50197F1F799A788A7CE0127
:10315000885B9F4FFC012181CE01885B9F4FFC0162
:103160008481622F0E94C41A8981C45BDF4F0FB62D
:10317000F894DEBF0FBECDBFDF91CF911F910F91AD
:103180000895CF93DF93CDB7DEB727970FB6F894A6
:10319000DEBF0FBECDBF8A832B833C834D835E830E
:1031A0006F8319828F81883018F58C81843000F507
:1031B0008D81282F30E08C81882F90E041E050E015
:1031C000B9010E94C60D8E81282F30E08C81882F96
:1031D00090E040E050E0B9010E94C60D8B816A8109
:1031E0000E9466109C818F81692F0E94C41A02C0C0
:1031F00081E08983898127960FB6F894DEBF0FBEE0
:10320000CDBFDF91CF910895CF93DF93CDB7DEB7D8
:1032100028970FB6F894DEBF0FBECDBF9B838A837D
:103220002C833D834E835F8368871982888588302D
:10323000D8F48D818430C0F410C08A819B81FC0158
:1032400080812C813D814E815F8168850E94C118FB
:103250008A819B8101969B838A838A819B81FC0161
:103260008081882351F702C081E089838981289673
:103270000FB6F894DEBF0FBECDBFDF91CF9108959A
:10328000CF93DF93CDB7DEB727970FB6F894DEBFA5
:103290000FBECDBF8A832B833C834D835E836F83B8
:1032A00019828F81883018F58C81843000F58D81EA
:1032B000282F30E08C81882F90E040E050E0B90169
:1032C0000E94C60D8E81282F30E08C81882F90E0DF
:1032D00040E050E0B9010E94C60D8B816A810E94D6
:1032E00066109C818F81692F0E94C41A02C081E000
:1032F0008983898127960FB6F894DEBF0FBECDBFB4
:10330000DF91CF910895CF93DF93CDB7DEB72797A5
:103310000FB6F894DEBF0FBECDBF8A832B833C83EC
:103320004D835E836F8319828F81883068F48C812E
:10333000843050F48A81805D2B813C814D815E8197
:103340006F810E94C11802C081E08983898127961C
:103350000FB6F894DEBF0FBECDBFDF91CF910895B9
:103360000F931F93CF93DF93CDB7DEB728970FB698
:10337000F894DEBF0FBECDBF8A836B830C831D83A1
:103380002E833F83488719828885883018F58D8180
:10339000843000F58A81882F90E0009719F001971A
:1033A00059F014C08B8180582C813D814E815F8102
:1033B00068850E9440190DC08B8180542C813D810D
:1033C0004E815F8168850E94401903C081E0898336
:1033D000000002C081E08983898128960FB6F894A5
:1033E000DEBF0FBECDBFDF91CF911F910F9108952A
:1033F000CF93DF93CDB7DEB72C970FB6F894DEBF2F
:103400000FBECDBF9F838E83288739874A875B870E
:103410006C871C828C85883018F48985843020F074
:1034200081E08C838C81A7C01A8219821B825BC0C9
:103430004E815F819A01ADECBCEC0E94661E9695B0
:1034400087959695879596958795880F991F9C01E6
:10345000220F331F220F331F820F931F9A01281B45
:10346000390BC901892B31F489819A81892B11F497
:1034700081E08B8389819A81880F991F9C01220F9B
:10348000331F220F331FFC01E20FF31F4E815F81B8
:103490009A01ADECBCEC0E94661E969587959695B8
:1034A000879596958795880F991F9C01220F331F4A
:1034B000220F331F820F931F9A01281B390BC9015A
:1034C0008E0F9F1F9A8389838E819F819C01ADEC13
:1034D000BCEC0E94661E9695879596958795969565
:1034E00087959F838E838E819F81892B09F0A0CF42
:1034F00032C049815A819A01ADECBCEC0E94661E33
:10350000969587959695879596958795880F991F97
:103510009C01220F331F220F331F820F931F9A012A
:10352000281B390BC9018D83288539854A855B8520
:103530006C858D810E94831989819A819C01ADECF3
:10354000BCEC0E94661E96958795969587959695F4
:1035500087959A83898389819A81892B51F68B81FA
:10356000882341F0288539854A855B856C8580E014
:103570000E9483198C812C960FB6F894DEBF0FBE83
:10358000CDBFDF91CF910895CF93DF93CDB7DEB755
:1035900061970FB6F894DEBF0FBECDBF888B698BE5
:1035A00019828889883008F090C08989843008F0B1
:1035B00089C08889282F30E08989882F90E041E0F0
:1035C00050E0B9010E94C60D80E090E0A0E0B0E4B8
:1035D0008A839B83AC83BD8320E030E04AEF54E4D0
:1035E0006A817B818C819D810E943F20DC01CB011F
:1035F0008E839F83A887B98720E030E040E85FE3AF
:103600006E817F81888599850E94E21E88232CF433
:1036100081E090E09B878A873FC020E03FEF4FE743
:1036200057E46E817F81888599850E943A2018161B
:103630004CF520E030E040E251E46A817B818C81EE
:103640009D810E943F20DC01CB01BC01CD010E9485
:10365000591FDC01CB019B878A870FC088EC90E063
:103660009D878C878C859D850197F1F79D878C8739
:103670008A859B8501979B878A878A859B85892B6D
:1036800069F714C06E817F81888599850E94591FD2
:10369000DC01CB019B878A878A859B859F878E87E4
:1036A0008E859F850197F1F79F878E878889282FC0
:1036B00030E08989882F90E040E050E0B9010E9415
:1036C000C60D05C081E0898302C081E089838981BC
:1036D00061960FB6F894DEBF0FBECDBFDF91CF91DC
:1036E0000895CF93DF93CDB7DEB761970FB6F89407
:1036F000DEBF0FBECDBF8FEF89831A82B5C08A812E
:10370000882F90E040E050E0BC0183E090E00E9410
:10371000C60D1B8298C08B818C5F682F83E00E944E
:10372000BF0E882309F08CC08A81282F30E08B815E
:10373000882F90E0220F331F220F331F820F931F19
:1037400085599F4FFC018081898300008B818C5FAC
:10375000682F83E00E94BF0E8823C1F380E090E0D1
:10376000A0E2B1E48C839D83AE83BF8320E030E090
:103770004AEF54E46C817D818E819F810E943F20BD
:10378000DC01CB0188879987AA87BB8720E030E0DE
:1037900040E85FE3688579858A859B850E94E21E03
:1037A00088232CF481E090E09D878C873FC020E047
:1037B0003FEF4FE757E4688579858A859B850E94AE
:1037C0003A2018164CF520E030E040E251E46C81DC
:1037D0007D818E819F810E943F20DC01CB01BC0155
:1037E000CD010E94591FDC01CB019D878C870FC042
:1037F00088EC90E09F878E878E859F850197F1F7F3
:103800009F878E878C859D8501979D878C878C856A
:103810009D85892B69F714C0688579858A859B8584
:103820000E94591FDC01CB019D878C878C859D856B
:10383000998B888B888999890197F1F7998B888B67
:103840008B818F5F8B838B81843008F464CF8A8176
:10385000882F90E040E050E0BC0183E090E00E94BF
:10386000C60D8A818F5F8A838A81843008F447CFAE
:10387000898161960FB6F894DEBF0FBECDBFDF9190
:10388000CF910895CF93DF93CDB7DEB76FE083E09C
:103890000E9425106FEF83E00E9466100000DF9108
:1038A000CF910895CF93DF9300D0CDB7DEB70E94BC
:1038B000790041E067E080E00E942C0F41E064E085
:1038C00080E00E942C0F0E94CF1C80913E01882333
:1038D00009F457C080914001882309F452C081E067
:1038E00089838CE990E00E94C60081EB90E00E9401
:1038F000C60042C00E94AF008A838A81882F90E070
:103900008133910531F081379105A9F0C09751F0CD
:1039100032C041E050E067E070E080E090E00E945B
:10392000C60D2AC040E050E067E070E080E090E023
:103930000E94C60D21C040E050E067E070E080E0EA
:1039400090E00E94C60D89EE90E00E94C6001092A1
:103950003E0110924001198210923F0165E086E419
:1039600091E00E941F0166E081E491E00E941F0146
:103970000E94CF1C01C000008981882309F0BACFC2
:103980000DC08DEE90E00E94C60041E050E064E082
:1039900070E080E090E00E94C60DFFCF96CFCF93FD
:1039A000DF9300D000D01F92CDB7DEB71982A4C03C
:1039B0008CEF90E00E94C60080913E01813009F4B6
:1039C00094C065E086E491E00E94F2001A8289C00A
:1039D0001B8275C08B81882F90E08A5B9E4FFC0113
:1039E00060818A81282F30E08B81482F50E0C90107
:1039F000880F991F880F991F820F931F840F951F9F
:103A000085589F4FFC018081681761F581E08093A4
:103A10003E0181E191E00E94C6008B81882F90E0F9
:103A20008A5B9E4FFC0180810E94940080E20E948C
:103A300094008A81282F30E08B81482F50E0C90103
:103A4000880F991F880F991F820F931F840F951F4E
:103A500085589F4FFC0180810E9494008AE00E945B
:103A600094002AC010923E018CE191E00E94C600B1
:103A70008A81882F90E08A5B9E4FFC0180810E94A2
:103A8000940080E20E9494008A81282F30E08B818C
:103A9000482F50E0C901880F991F880F991F820F86
:103AA000931F840F951F85589F4FFC0180810E94B2
:103AB00094008AE00E9494008B818F5F8B838B81BE
:103AC000853008F487CF80913E01813021F48A81CE
:103AD00080933F010AC08AE00E9494008A818F5F30
:103AE0008A838A81833008F473CF80913E018130CC
:103AF00041F089818F5F89838981833008F458CFB1
:103B000001C0000080913E01882309F49BC01C8203
:103B100093C08AE00E94940088E291E00E94C6006F
:103B200066E081E491E00E94F2001D827AC08D81FE
:103B3000882F90E001968F5B9E4FFC016081809101
:103B40003F01282F30E08D81482F50E0C901880FB8
:103B5000991F820F931F880F991F840F951F8657F7
:103B60009F4FFC018081681771F581E080934001CF
:103B700081E191E00E94C6008D81882F90E001963E
:103B80008F5B9E4FFC0180810E94940080E20E9426
:103B9000940080913F01282F30E08D81482F50E024
:103BA000C901880F991F820F931F880F991F840FD7
:103BB000951F86579F4FFC0180810E9494008AE0E8
:103BC0000E9494002BC0109240018CE191E00E9471
:103BD000C6008D81882F90E08F5B9E4FFC01808115
:103BE0000E94940080E20E94940080913F01282F5F
:103BF00030E08D81482F50E0C901880F991F820F56
:103C0000931F880F991F840F951F86579F4FFC01A4
:103C100080810E9494008AE00E9494008D818F5FD1
:103C20008D838D81853008F482CF80914001882377
:103C300041F48C818F5F8C838C81833008F469CF51
:103C400001C0000000000F900F900F900F900F9098
:103C5000DF91CF910895CF93DF9300D000D000D0B3
:103C6000CDB7DEB79B838A837D836C834E831982B5
:103C700019C08981882F90E02A813B81820F931F90
:103C8000FC0140818981882F90E02C813D81820F49
:103C9000931FFC018081481711F080E008C08981E2
:103CA0008F5F898399818E81981718F381E026961A
:103CB0000FB6F894DEBF0FBECDBFDF91CF91089550
:103CC000EE0FFF1F0590F491E02D0994A29FB00123
:103CD000B39FC001A39F700D811D1124911DB29F40
:103CE000700D811D1124911D08955058BB27AA27DE
:103CF0000E948D1E0C9400200E94F21F38F00E943A
:103D0000F91F20F039F49F3F19F426F40C94EF1FAB
:103D10000EF4E095E7FB0C94E91FE92F0E941120B7
:103D200058F3BA17620773078407950720F079F4F0
:103D3000A6F50C9433200EF4E0950B2EBA2FA02D8F
:103D40000B01B90190010C01CA01A0011124FF2748
:103D5000591B99F0593F50F4503E68F11A16F04043
:103D6000A22F232F342F4427585FF3CF4695379542
:103D70002795A795F0405395C9F77EF41F16BA0B07
:103D8000620B730B840BBAF09150A1F0FF0FBB1FB5
:103D9000661F771F881FC2F70EC0BA0F621F731FFE
:103DA000841F48F4879577956795B795F7959E3F5B
:103DB00008F0B0CF9395880F08F09927EE0F9795EC
:103DC000879508950E94C51F08F481E008950E9418
:103DD000FB1E0C9400200E94F91F58F00E94F21F55
:103DE00040F029F45F3F29F00C94E91F51110C9425
:103DF00034200C94EF1F0E94112068F39923B1F333
:103E0000552391F3951B550BBB27AA276217730700
:103E1000840738F09F5F5F4F220F331F441FAA1F94
:103E2000A9F335D00E2E3AF0E0E832D09150504050
:103E3000E695001CCAF72BD0FE2F29D0660F771FFE
:103E4000881FBB1F261737074807AB07B0E809F0E4
:103E5000BB0B802DBF01FF2793585F4F3AF09E3F69
:103E6000510578F00C94E91F0C9434205F3FE4F383
:103E7000983ED4F3869577956795B795F7959F5FAC
:103E8000C9F7880F911D9695879597F90895E1E0F8
:103E9000660F771F881FBB1F621773078407BA0757
:103EA00020F0621B730B840BBA0BEE1F88F7E095B2
:103EB00008950E94192088F09F5798F0B92F9927EC
:103EC000B751B0F0E1F0660F771F881F991F1AF005
:103ED000BA95C9F714C0B13091F00E943320B1E017
:103EE00008950C943320672F782F8827B85F39F016
:103EF000B93FCCF3869577956795B395D9F73EF49E
:103F000090958095709561957F4F8F4F9F4F089545
:103F1000E89409C097FB3EF4909580957095619563
:103F20007F4F8F4F9F4F9923A9F0F92F96E9BB2719
:103F30009395F695879577956795B795F111F8CF95
:103F4000FAF4BB0F11F460FF1BC06F5F7F4F8F4F00
:103F50009F4F16C0882311F096E911C0772321F0F6
:103F60009EE8872F762F05C0662371F096E8862F8E
:103F700070E060E02AF09A95660F771F881FDAF7E5
:103F8000880F9695879597F90895990F0008550F12
:103F9000AA0BE0E8FEEF16161706E807F907C0F0CF
:103FA00012161306E407F50798F0621B730B840BD7
:103FB000950B39F40A2661F0232B242B252B21F4B1
:103FC00008950A2609F4A140A6958FEF811D811D51
:103FD000089597F99F6780E870E060E008959FEF8B
:103FE00080EC089500240A94161617061806090690
:103FF000089500240A94121613061406050608955F
:10400000092E0394000C11F4882352F0BB0F40F4E6
:10401000BF2B11F460FF04C06F5F7F4F8F4F9F4F26
:10402000089557FD9058440F551F59F05F3F71F0A8
:104030004795880F97FB991F61F09F3F79F087950F
:104040000895121613061406551FF2CF4695F1DF98
:1040500008C0161617061806991FF1CF8695710528
:10406000610508940895E894BB2766277727CB015C
:1040700097F908950E94C51F08F48FEF08950E94D4
:1040800052200C9400200E94F21F38F00E94F91F69
:1040900020F0952311F00C94E91F0C94EF1F1124CC
:1040A0000C9434200E94112070F3959FC1F3950F5A
:1040B00050E0551F629FF001729FBB27F00DB11DAC
:1040C000639FAA27F00DB11DAA1F649F6627B00D3C
:1040D000A11D661F829F2227B00DA11D621F739F25
:1040E000B00DA11D621F839FA00D611D221F749F33
:1040F0003327A00D611D231F849F600D211D822F7A
:10410000762F6A2F11249F5750409AF0F1F08823A0
:104110004AF0EE0FFF1FBB1F661F771F881F9150CD
:104120005040A9F79E3F510580F00C94E91F0C9474
:1041300034205F3FE4F3983ED4F3869577956795F6
:10414000B795F795E7959F5FC1F7FE2B880F911DF7
:0C4150009695879597F90895F894FFCF95
:10415C003F065B4F666D7D077F6F7901020301039C
:10416C00040501060708010400020175736572312C
:10417C007573657232757365723370617373310068
:10418C007061737332007061737333000A0A4C6F81
:10419C0067696E205375636365737366756C210A6A
:1041AC000053656E64203120746F207475726E201C
:1041BC006F6E20746865204C45440A3020746F2063
:1041CC007475726E206974204F66660A7120746F64
:1041DC00204C6F67204F7574000A0A0A000A577248
:1041EC006F6E6720456E747279210A005479706580
:1041FC0020796F757220757365726E616D653A0A00
:10420C00004920616D207472756520004920616D34
:10421C002046616C736520005479706520796F7548
:0E422C00722070617373776F72643A0A00003B
:00000001FF
